{
  "abi": [
    {
      "inputs": [
        {
          "internalType": "string",
          "name": "_name",
          "type": "string"
        },
        {
          "internalType": "string",
          "name": "_symbol",
          "type": "string"
        },
        {
          "internalType": "contract ISuperToken",
          "name": "_inResourceToken",
          "type": "address"
        },
        {
          "internalType": "int96",
          "name": "_maxInFlowRate",
          "type": "int96"
        },
        {
          "internalType": "string[]",
          "name": "_tokenURIs",
          "type": "string[]"
        },
        {
          "internalType": "uint256[]",
          "name": "_tiers",
          "type": "uint256[]"
        }
      ],
      "stateMutability": "nonpayable",
      "type": "constructor"
    },
    {
      "inputs": [],
      "name": "NotAcceptedSuperToken",
      "type": "error"
    },
    {
      "inputs": [],
      "name": "NotImplemented",
      "type": "error"
    },
    {
      "inputs": [],
      "name": "UnauthorizedHost",
      "type": "error"
    },
    {
      "anonymous": false,
      "inputs": [
        {
          "indexed": true,
          "internalType": "address",
          "name": "owner",
          "type": "address"
        },
        {
          "indexed": true,
          "internalType": "address",
          "name": "spender",
          "type": "address"
        },
        {
          "indexed": true,
          "internalType": "uint256",
          "name": "id",
          "type": "uint256"
        }
      ],
      "name": "Approval",
      "type": "event"
    },
    {
      "anonymous": false,
      "inputs": [
        {
          "indexed": true,
          "internalType": "address",
          "name": "owner",
          "type": "address"
        },
        {
          "indexed": true,
          "internalType": "address",
          "name": "operator",
          "type": "address"
        },
        {
          "indexed": false,
          "internalType": "bool",
          "name": "approved",
          "type": "bool"
        }
      ],
      "name": "ApprovalForAll",
      "type": "event"
    },
    {
      "anonymous": false,
      "inputs": [
        {
          "indexed": true,
          "internalType": "address",
          "name": "from",
          "type": "address"
        },
        {
          "indexed": true,
          "internalType": "address",
          "name": "to",
          "type": "address"
        },
        {
          "indexed": true,
          "internalType": "uint256",
          "name": "id",
          "type": "uint256"
        }
      ],
      "name": "Transfer",
      "type": "event"
    },
    {
      "inputs": [],
      "name": "CFAV1_TYPE",
      "outputs": [
        {
          "internalType": "bytes32",
          "name": "",
          "type": "bytes32"
        }
      ],
      "stateMutability": "view",
      "type": "function"
    },
    {
      "inputs": [
        {
          "internalType": "contract ISuperToken",
          "name": "superToken",
          "type": "address"
        },
        {
          "internalType": "address",
          "name": "agreementClass",
          "type": "address"
        },
        {
          "internalType": "bytes32",
          "name": "",
          "type": "bytes32"
        },
        {
          "internalType": "bytes",
          "name": "agreementData",
          "type": "bytes"
        },
        {
          "internalType": "bytes",
          "name": "",
          "type": "bytes"
        },
        {
          "internalType": "bytes",
          "name": "ctx",
          "type": "bytes"
        }
      ],
      "name": "afterAgreementCreated",
      "outputs": [
        {
          "internalType": "bytes",
          "name": "newCtx",
          "type": "bytes"
        }
      ],
      "stateMutability": "nonpayable",
      "type": "function"
    },
    {
      "inputs": [
        {
          "internalType": "contract ISuperToken",
          "name": "superToken",
          "type": "address"
        },
        {
          "internalType": "address",
          "name": "agreementClass",
          "type": "address"
        },
        {
          "internalType": "bytes32",
          "name": "",
          "type": "bytes32"
        },
        {
          "internalType": "bytes",
          "name": "agreementData",
          "type": "bytes"
        },
        {
          "internalType": "bytes",
          "name": "cbdata",
          "type": "bytes"
        },
        {
          "internalType": "bytes",
          "name": "ctx",
          "type": "bytes"
        }
      ],
      "name": "afterAgreementTerminated",
      "outputs": [
        {
          "internalType": "bytes",
          "name": "newCtx",
          "type": "bytes"
        }
      ],
      "stateMutability": "nonpayable",
      "type": "function"
    },
    {
      "inputs": [
        {
          "internalType": "contract ISuperToken",
          "name": "superToken",
          "type": "address"
        },
        {
          "internalType": "address",
          "name": "agreementClass",
          "type": "address"
        },
        {
          "internalType": "bytes32",
          "name": "",
          "type": "bytes32"
        },
        {
          "internalType": "bytes",
          "name": "agreementData",
          "type": "bytes"
        },
        {
          "internalType": "bytes",
          "name": "cbdata",
          "type": "bytes"
        },
        {
          "internalType": "bytes",
          "name": "ctx",
          "type": "bytes"
        }
      ],
      "name": "afterAgreementUpdated",
      "outputs": [
        {
          "internalType": "bytes",
          "name": "newCtx",
          "type": "bytes"
        }
      ],
      "stateMutability": "nonpayable",
      "type": "function"
    },
    {
      "inputs": [
        {
          "internalType": "address",
          "name": "spender",
          "type": "address"
        },
        {
          "internalType": "uint256",
          "name": "id",
          "type": "uint256"
        }
      ],
      "name": "approve",
      "outputs": [],
      "stateMutability": "nonpayable",
      "type": "function"
    },
    {
      "inputs": [
        {
          "internalType": "address",
          "name": "owner",
          "type": "address"
        }
      ],
      "name": "balanceOf",
      "outputs": [
        {
          "internalType": "uint256",
          "name": "",
          "type": "uint256"
        }
      ],
      "stateMutability": "view",
      "type": "function"
    },
    {
      "inputs": [
        {
          "internalType": "contract ISuperToken",
          "name": "",
          "type": "address"
        },
        {
          "internalType": "address",
          "name": "",
          "type": "address"
        },
        {
          "internalType": "bytes32",
          "name": "",
          "type": "bytes32"
        },
        {
          "internalType": "bytes",
          "name": "",
          "type": "bytes"
        },
        {
          "internalType": "bytes",
          "name": "",
          "type": "bytes"
        }
      ],
      "name": "beforeAgreementCreated",
      "outputs": [
        {
          "internalType": "bytes",
          "name": "",
          "type": "bytes"
        }
      ],
      "stateMutability": "pure",
      "type": "function"
    },
    {
      "inputs": [
        {
          "internalType": "contract ISuperToken",
          "name": "superToken",
          "type": "address"
        },
        {
          "internalType": "address",
          "name": "agreementClass",
          "type": "address"
        },
        {
          "internalType": "bytes32",
          "name": "",
          "type": "bytes32"
        },
        {
          "internalType": "bytes",
          "name": "agreementData",
          "type": "bytes"
        },
        {
          "internalType": "bytes",
          "name": "",
          "type": "bytes"
        }
      ],
      "name": "beforeAgreementTerminated",
      "outputs": [
        {
          "internalType": "bytes",
          "name": "",
          "type": "bytes"
        }
      ],
      "stateMutability": "view",
      "type": "function"
    },
    {
      "inputs": [
        {
          "internalType": "contract ISuperToken",
          "name": "superToken",
          "type": "address"
        },
        {
          "internalType": "address",
          "name": "agreementClass",
          "type": "address"
        },
        {
          "internalType": "bytes32",
          "name": "",
          "type": "bytes32"
        },
        {
          "internalType": "bytes",
          "name": "agreementData",
          "type": "bytes"
        },
        {
          "internalType": "bytes",
          "name": "",
          "type": "bytes"
        }
      ],
      "name": "beforeAgreementUpdated",
      "outputs": [
        {
          "internalType": "bytes",
          "name": "",
          "type": "bytes"
        }
      ],
      "stateMutability": "view",
      "type": "function"
    },
    {
      "inputs": [],
      "name": "counter",
      "outputs": [
        {
          "internalType": "uint256",
          "name": "",
          "type": "uint256"
        }
      ],
      "stateMutability": "view",
      "type": "function"
    },
    {
      "inputs": [
        {
          "internalType": "uint256",
          "name": "",
          "type": "uint256"
        }
      ],
      "name": "getApproved",
      "outputs": [
        {
          "internalType": "address",
          "name": "",
          "type": "address"
        }
      ],
      "stateMutability": "view",
      "type": "function"
    },
    {
      "inputs": [
        {
          "internalType": "uint256",
          "name": "id",
          "type": "uint256"
        }
      ],
      "name": "getTierLevel",
      "outputs": [
        {
          "internalType": "uint256",
          "name": "",
          "type": "uint256"
        }
      ],
      "stateMutability": "view",
      "type": "function"
    },
    {
      "inputs": [],
      "name": "host",
      "outputs": [
        {
          "internalType": "contract ISuperfluid",
          "name": "",
          "type": "address"
        }
      ],
      "stateMutability": "view",
      "type": "function"
    },
    {
      "inputs": [],
      "name": "inResourceToken",
      "outputs": [
        {
          "internalType": "contract ISuperToken",
          "name": "",
          "type": "address"
        }
      ],
      "stateMutability": "view",
      "type": "function"
    },
    {
      "inputs": [
        {
          "internalType": "contract ISuperToken",
          "name": "",
          "type": "address"
        }
      ],
      "name": "isAcceptedSuperToken",
      "outputs": [
        {
          "internalType": "bool",
          "name": "",
          "type": "bool"
        }
      ],
      "stateMutability": "view",
      "type": "function"
    },
    {
      "inputs": [
        {
          "internalType": "address",
          "name": "",
          "type": "address"
        },
        {
          "internalType": "address",
          "name": "",
          "type": "address"
        }
      ],
      "name": "isApprovedForAll",
      "outputs": [
        {
          "internalType": "bool",
          "name": "",
          "type": "bool"
        }
      ],
      "stateMutability": "view",
      "type": "function"
    },
    {
      "inputs": [],
      "name": "maxInFlowRate",
      "outputs": [
        {
          "internalType": "int96",
          "name": "",
          "type": "int96"
        }
      ],
      "stateMutability": "view",
      "type": "function"
    },
    {
      "inputs": [],
      "name": "name",
      "outputs": [
        {
          "internalType": "string",
          "name": "",
          "type": "string"
        }
      ],
      "stateMutability": "view",
      "type": "function"
    },
    {
      "inputs": [
        {
          "internalType": "uint256",
          "name": "id",
          "type": "uint256"
        }
      ],
      "name": "ownerOf",
      "outputs": [
        {
          "internalType": "address",
          "name": "owner",
          "type": "address"
        }
      ],
      "stateMutability": "view",
      "type": "function"
    },
    {
      "inputs": [
        {
          "internalType": "address",
          "name": "from",
          "type": "address"
        },
        {
          "internalType": "address",
          "name": "to",
          "type": "address"
        },
        {
          "internalType": "uint256",
          "name": "id",
          "type": "uint256"
        }
      ],
      "name": "safeTransferFrom",
      "outputs": [],
      "stateMutability": "nonpayable",
      "type": "function"
    },
    {
      "inputs": [
        {
          "internalType": "address",
          "name": "from",
          "type": "address"
        },
        {
          "internalType": "address",
          "name": "to",
          "type": "address"
        },
        {
          "internalType": "uint256",
          "name": "id",
          "type": "uint256"
        },
        {
          "internalType": "bytes",
          "name": "data",
          "type": "bytes"
        }
      ],
      "name": "safeTransferFrom",
      "outputs": [],
      "stateMutability": "nonpayable",
      "type": "function"
    },
    {
      "inputs": [
        {
          "internalType": "address",
          "name": "operator",
          "type": "address"
        },
        {
          "internalType": "bool",
          "name": "approved",
          "type": "bool"
        }
      ],
      "name": "setApprovalForAll",
      "outputs": [],
      "stateMutability": "nonpayable",
      "type": "function"
    },
    {
      "inputs": [
        {
          "internalType": "uint256",
          "name": "tier",
          "type": "uint256"
        },
        {
          "internalType": "uint256",
          "name": "tierValue",
          "type": "uint256"
        }
      ],
      "name": "setTier",
      "outputs": [],
      "stateMutability": "nonpayable",
      "type": "function"
    },
    {
      "inputs": [
        {
          "internalType": "uint256",
          "name": "tier",
          "type": "uint256"
        },
        {
          "internalType": "string",
          "name": "uri",
          "type": "string"
        }
      ],
      "name": "setTokenURI",
      "outputs": [],
      "stateMutability": "nonpayable",
      "type": "function"
    },
    {
      "inputs": [
        {
          "internalType": "bytes4",
          "name": "interfaceId",
          "type": "bytes4"
        }
      ],
      "name": "supportsInterface",
      "outputs": [
        {
          "internalType": "bool",
          "name": "",
          "type": "bool"
        }
      ],
      "stateMutability": "view",
      "type": "function"
    },
    {
      "inputs": [],
      "name": "symbol",
      "outputs": [
        {
          "internalType": "string",
          "name": "",
          "type": "string"
        }
      ],
      "stateMutability": "view",
      "type": "function"
    },
    {
      "inputs": [
        {
          "internalType": "uint256",
          "name": "",
          "type": "uint256"
        }
      ],
      "name": "tiers",
      "outputs": [
        {
          "internalType": "uint256",
          "name": "",
          "type": "uint256"
        }
      ],
      "stateMutability": "view",
      "type": "function"
    },
    {
      "inputs": [
        {
          "internalType": "uint256",
          "name": "id",
          "type": "uint256"
        }
      ],
      "name": "tokenURI",
      "outputs": [
        {
          "internalType": "string",
          "name": "",
          "type": "string"
        }
      ],
      "stateMutability": "view",
      "type": "function"
    },
    {
      "inputs": [
        {
          "internalType": "uint256",
          "name": "",
          "type": "uint256"
        }
      ],
      "name": "tokenURIs",
      "outputs": [
        {
          "internalType": "string",
          "name": "",
          "type": "string"
        }
      ],
      "stateMutability": "view",
      "type": "function"
    },
    {
      "inputs": [
        {
          "internalType": "address",
          "name": "from",
          "type": "address"
        },
        {
          "internalType": "address",
          "name": "to",
          "type": "address"
        },
        {
          "internalType": "uint256",
          "name": "id",
          "type": "uint256"
        }
      ],
      "name": "transferFrom",
      "outputs": [],
      "stateMutability": "nonpayable",
      "type": "function"
    },
    {
      "inputs": [
        {
          "internalType": "address",
          "name": "",
          "type": "address"
        }
      ],
      "name": "userInfo",
      "outputs": [
        {
          "internalType": "uint256",
          "name": "timestamp",
          "type": "uint256"
        },
        {
          "internalType": "uint256",
          "name": "balance",
          "type": "uint256"
        }
      ],
      "stateMutability": "view",
      "type": "function"
    }
  ],
  "bytecode": {
    "object": "0x60a06040523480156200001157600080fd5b5060405162003487380380620034878339810160408190526200003491620005a1565b8585856001600160a01b03166320bc44256040518163ffffffff1660e01b8152600401602060405180830381865afa15801562000075573d6000803e3d6000fd5b505050506040513d601f19601f820116820180604052508101906200009b91906200067e565b600080546001600160a01b0319166001600160a01b0383161790556001808064010000000182620000ce57640c00000000175b81620000dc57643000000000175b6040516315a722b960e31b8152600481018290526001600160a01b0386169063ad3915c890602401600060405180830381600087803b1580156200011f57600080fd5b505af115801562000134573d6000803e3d6000fd5b50505050505050505081600190816200014e919062000734565b5060026200015d828262000734565b5050506001600160a01b038416620001ca5760405162461bcd60e51b815260206004820152602560248201527f45564f3a20696e5265736f75726365546f6b656e206d757374206265206e6f6e6044820152642d7a65726f60d81b60648201526084015b60405180910390fd5b600083600b0b12156200022c5760405162461bcd60e51b815260206004820152602360248201527f45564f3a206d6178496e466c6f7752617465206d757374206265206e6f6e2d7a60448201526265726f60e81b6064820152608401620001c1565b80518251146200029a5760405162461bcd60e51b815260206004820152603260248201527f45564f3a20746f6b656e5552497320616e64207469657273206d7573742068616044820152710ecca40e8d0ca40e6c2daca40d8cadccee8d60731b6064820152608401620001c1565b60005b82518110156200033157828181518110620002bc57620002bc62000800565b6020026020010151600960008381526020019081526020016000209081620002e5919062000734565b50600a828281518110620002fd57620002fd62000800565b6020908102919091018101518254600181018455600093845291909220015580620003288162000816565b9150506200029d565b5050506001600160a01b0391909116608052600780546001600160601b0319166001600160601b03909216919091179055506200083e9050565b634e487b7160e01b600052604160045260246000fd5b604051601f8201601f191681016001600160401b0381118282101715620003ac57620003ac6200036b565b604052919050565b600082601f830112620003c657600080fd5b81516001600160401b03811115620003e257620003e26200036b565b6020620003f8601f8301601f1916820162000381565b82815285828487010111156200040d57600080fd5b60005b838110156200042d57858101830151828201840152820162000410565b506000928101909101919091529392505050565b6001600160a01b03811681146200045757600080fd5b50565b8051620004678162000441565b919050565b8051600b81900b81146200046757600080fd5b60006001600160401b038211156200049b576200049b6200036b565b5060051b60200190565b600082601f830112620004b757600080fd5b81516020620004d0620004ca836200047f565b62000381565b82815260059290921b84018101918181019086841115620004f057600080fd5b8286015b84811015620005345780516001600160401b03811115620005155760008081fd5b620005258986838b0101620003b4565b845250918301918301620004f4565b509695505050505050565b600082601f8301126200055157600080fd5b8151602062000564620004ca836200047f565b82815260059290921b840181019181810190868411156200058457600080fd5b8286015b8481101562000534578051835291830191830162000588565b60008060008060008060c08789031215620005bb57600080fd5b86516001600160401b0380821115620005d357600080fd5b620005e18a838b01620003b4565b97506020890151915080821115620005f857600080fd5b620006068a838b01620003b4565b96506200061660408a016200045a565b95506200062660608a016200046c565b945060808901519150808211156200063d57600080fd5b6200064b8a838b01620004a5565b935060a08901519150808211156200066257600080fd5b506200067189828a016200053f565b9150509295509295509295565b6000602082840312156200069157600080fd5b81516200069e8162000441565b9392505050565b600181811c90821680620006ba57607f821691505b602082108103620006db57634e487b7160e01b600052602260045260246000fd5b50919050565b601f8211156200072f57600081815260208120601f850160051c810160208610156200070a5750805b601f850160051c820191505b818110156200072b5782815560010162000716565b5050505b505050565b81516001600160401b038111156200075057620007506200036b565b6200076881620007618454620006a5565b84620006e1565b602080601f831160018114620007a05760008415620007875750858301515b600019600386901b1c1916600185901b1785556200072b565b600085815260208120601f198616915b82811015620007d157888601518255948401946001909101908401620007b0565b5085821015620007f05787850151600019600388901b60f8161c191681555b5050505050600190811b01905550565b634e487b7160e01b600052603260045260246000fd5b6000600182016200083757634e487b7160e01b600052601160045260246000fd5b5060010190565b608051612c11620008766000396000818161033801528181610ed201528181611280015281816112e101526117660152612c116000f3fe608060405234801561001057600080fd5b50600436106101e55760003560e01c806361bc221a1161010f578063a34e5990116100a2578063c87b56dd11610071578063c87b56dd1461048a578063d86ed3e51461049d578063e985e9c5146104b0578063f437bc59146104de57600080fd5b8063a34e59901461042a578063b7713b7c1461043d578063b88d4fde14610450578063bcb4546f1461046357600080fd5b806372ca8a3e116100de57806372ca8a3e146103e8578063884d1f40146103fc57806395d89b411461040f578063a22cb4651461041757600080fd5b806361bc221a146103a65780636352211e146103af5780636c8b703f146103c257806370a08231146103d557600080fd5b80631959a0021161018757806330d9c9151161015657806330d9c9151461035a57806342842e0e1461036d57806353c11f99146103805780635f9e7d771461039357600080fd5b80631959a002146102d1578063230dbd291461030d57806323b872dd146103205780632d5684a71461033357600080fd5b8063081812fc116101c3578063081812fc14610248578063095ea7b3146102895780630fc824591461029e578063162094c4146102be57600080fd5b806301ffc9a7146101ea578063039af9eb1461021257806306fdde0314610233575b600080fd5b6101fd6101f8366004612269565b6104f1565b60405190151581526020015b60405180910390f35b610225610220366004612286565b6105d6565b604051908152602001610209565b61023b6105f7565b60405161020991906122ef565b610271610256366004612286565b6005602052600090815260409020546001600160a01b031681565b6040516001600160a01b039091168152602001610209565b61029c610297366004612317565b610685565b005b6007546102ab90600b0b81565b604051600b9190910b8152602001610209565b61029c6102cc3660046123b2565b610793565b6102f86102df36600461243c565b6008602052600090815260409020805460019091015482565b60408051928352602083019190915201610209565b61023b61031b3660046124a2565b6107b0565b61029c61032e36600461256d565b610888565b6102717f000000000000000000000000000000000000000000000000000000000000000081565b61023b6103683660046125ae565b61089c565b61029c61037b36600461256d565b6108dc565b61023b61038e3660046124a2565b6108f0565b61023b6103a13660046125ae565b6109a8565b610225600b5481565b6102716103bd366004612286565b610a83565b61023b6103d0366004612286565b610aed565b6102256103e336600461243c565b610b06565b6101fd6103f636600461243c565b50600190565b61023b61040a3660046125ae565b610b7a565b61023b610c68565b61029c61042536600461264d565b610c75565b61029c61043836600461268b565b610ce1565b61022561044b366004612286565b610d05565b61029c61045e3660046126ad565b610dfc565b6102257fa9214cc96615e0085d3bb077758db69497dc2dce3b2b1e97bc93c3d18d83efd381565b61023b610498366004612286565b610e19565b61023b6104ab3660046124a2565b610f87565b6101fd6104be366004612720565b600660209081526000928352604080842090915290825290205460ff1681565b600054610271906001600160a01b031681565b60007f01ffc9a7000000000000000000000000000000000000000000000000000000007fffffffff000000000000000000000000000000000000000000000000000000008316148061058457507f80ac58cd000000000000000000000000000000000000000000000000000000007fffffffff000000000000000000000000000000000000000000000000000000008316145b806105d057507f5b5e139f000000000000000000000000000000000000000000000000000000007fffffffff000000000000000000000000000000000000000000000000000000008316145b92915050565b600a81815481106105e657600080fd5b600091825260209091200154905081565b600180546106049061274e565b80601f01602080910402602001604051908101604052809291908181526020018280546106309061274e565b801561067d5780601f106106525761010080835404028352916020019161067d565b820191906000526020600020905b81548152906001019060200180831161066057829003601f168201915b505050505081565b6000818152600360205260409020546001600160a01b0316338114806106ce57506001600160a01b038116600090815260066020908152604080832033845290915290205460ff165b61071f5760405162461bcd60e51b815260206004820152600e60248201527f4e4f545f415554484f52495a454400000000000000000000000000000000000060448201526064015b60405180910390fd5b60008281526005602052604080822080547fffffffffffffffffffffffff0000000000000000000000000000000000000000166001600160a01b0387811691821790925591518593918516917f8c5be1e5ebec7d5bd14f71427d1e84f3dd0314c0f7b2291e5b200ac8c7c3b92591a4505050565b60008281526009602052604090206107ab82826127d6565b505050565b6000546060906001600160a01b031633146107f7576040517f2f2d36a700000000000000000000000000000000000000000000000000000000815260040160405180910390fd5b61080089611046565b6108435782828080601f01602080910402602001604051908101604052809392919081815260200183838082843760009201919091525092935061087b92505050565b600061085187890189612720565b509050600080610863878901896128a5565b915091506108758d8484848a8a611107565b93505050505b9998505050505050505050565b6108918361120a565b6107ab83838361130c565b60408051808201909152600281527f307800000000000000000000000000000000000000000000000000000000000060208201525b979650505050505050565b6108e58361120a565b6107ab838383611519565b6000546060906001600160a01b031633141580610913575061091189611046565b155b8061091c575060005b156109605782828080601f01602080910402602001604051908101604052809392919081815260200183838082843760009201919091525092935061087b92505050565b60008061096f888a018a612720565b9092509050600080610983888a018a6128c3565b915091506109968e858584868c8c61164a565b9e9d5050505050505050505050505050565b6000546060906001600160a01b0316331415806109cb57506109c987611046565b155b806109d4575060005b15610a13575060408051808201909152600281527f307800000000000000000000000000000000000000000000000000000000000060208201526108d1565b600080610a2286880188612720565b9092509050600080610a3e6001600160a01b038d168585611692565b5050915091508181604051602001610a63929190918252600b0b602082015260400190565b604051602081830303815290604052945050505050979650505050505050565b6000818152600360205260409020546001600160a01b031680610ae85760405162461bcd60e51b815260206004820152600a60248201527f4e4f545f4d494e544544000000000000000000000000000000000000000000006044820152606401610716565b919050565b600960205260009081526040902080546106049061274e565b60006001600160a01b038216610b5e5760405162461bcd60e51b815260206004820152600c60248201527f5a45524f5f4144445245535300000000000000000000000000000000000000006044820152606401610716565b506001600160a01b031660009081526004602052604090205490565b6000546060906001600160a01b03163314610bc1576040517f2f2d36a700000000000000000000000000000000000000000000000000000000815260040160405180910390fd5b610bca87611046565b610c08575060408051808201909152600281527f307800000000000000000000000000000000000000000000000000000000000060208201526108d1565b6000610c1685870187612720565b509050600080610c306001600160a01b038c168430611692565b505060408051600b9290920b60208301528181019290925281518082038301815260609091019091529b9a5050505050505050505050565b600280546106049061274e565b3360008181526006602090815260408083206001600160a01b03871680855290835292819020805460ff191686151590811790915590519081529192917f17307eab39ab6107e8899845ad3d59bd9653f200f220920489ca2b5937696c31910160405180910390a35050565b80600a8381548110610cf557610cf56128e8565b6000918252602090912001555050565b6000818152600360205260408120546001600160a01b0316610d8f5760405162461bcd60e51b815260206004820152602960248201527f45564f3a20746f6b656e55524920717565727920666f72206e6f6e657869737460448201527f656e7420746f6b656e00000000000000000000000000000000000000000000006064820152608401610716565b6000610d9a8361174d565b905060005b600a54811015610df257600a8181548110610dbc57610dbc6128e8565b90600052602060002001548210610de057610dd8816001612914565b949350505050565b80610dea81612927565b915050610d9f565b5060009392505050565b610e058561120a565b610e12858585858561181a565b5050505050565b6000818152600360205260409020546060906001600160a01b0316610ea65760405162461bcd60e51b815260206004820152602960248201527f45564f3a20746f6b656e55524920717565727920666f72206e6f6e657869737460448201527f656e7420746f6b656e00000000000000000000000000000000000000000000006064820152608401610716565b6000610eb461044b8461174d565b90506000610ec184610a83565b90506000610ef96001600160a01b037f0000000000000000000000000000000000000000000000000000000000000000168330611939565b9050600081600b0b1315610f4d5760096000610f16600186612941565b8152602001908152602001600020604051602001610f349190612954565b6040516020818303038152906040529350505050919050565b6000805260096020908152604051610f34917fec8156718a8372b1db44bb411437d0870f3e3790d4a08526d024ce1b0b668f6b9101612954565b6000546060906001600160a01b03163314610fce576040517f2f2d36a700000000000000000000000000000000000000000000000000000000815260040160405180910390fd5b610fd789611046565b61101a5782828080601f01602080910402602001604051908101604052809392919081815260200183838082843760009201919091525092935061087b92505050565b600061102887890189612720565b5090506110378b8286866119ea565b9b9a5050505050505050505050565b600080546040517fb6d200de0000000000000000000000000000000000000000000000000000000081527fa9214cc96615e0085d3bb077758db69497dc2dce3b2b1e97bc93c3d18d83efd360048201526001600160a01b039091169063b6d200de90602401602060405180830381865afa1580156110c8573d6000803e3d6000fd5b505050506040513d601f19601f820116820180604052508101906110ec91906129f9565b6001600160a01b0316826001600160a01b0316149050919050565b606082828080601f0160208091040260200160405190810160405280939291908181526020018383808284376000920182905250939450611156925050506001600160a01b0389168830611939565b600754909150600b90810b9082900b13156111d95760405162461bcd60e51b815260206004820152603160248201527f45564f3a20757365722063616e27742073747265616d20696e206d6f7265207460448201527f68616e206d6178496e466c6f77526174650000000000000000000000000000006064820152608401610716565b6111e38787611b59565b506001600160a01b0390951660009081526008602052604090204290555092949350505050565b6001600160a01b03811660009081526008602052604081205490036112715760405162461bcd60e51b815260206004820152601460248201527f45564f3a207573657220686173206e6f204e46540000000000000000000000006044820152606401610716565b60006112a76001600160a01b037f0000000000000000000000000000000000000000000000000000000000000000168330611939565b9050600081600b0b1315611308576112bf8282611b59565b6001600160a01b0380831660009081526008602052604090204290556107ab907f0000000000000000000000000000000000000000000000000000000000000000168330611c3a565b5050565b6000818152600360205260409020546001600160a01b038481169116146113755760405162461bcd60e51b815260206004820152600a60248201527f57524f4e475f46524f4d000000000000000000000000000000000000000000006044820152606401610716565b6001600160a01b0382166113cb5760405162461bcd60e51b815260206004820152601160248201527f494e56414c49445f524543495049454e540000000000000000000000000000006044820152606401610716565b336001600160a01b038416148061140557506001600160a01b038316600090815260066020908152604080832033845290915290205460ff165b8061142657506000818152600560205260409020546001600160a01b031633145b6114725760405162461bcd60e51b815260206004820152600e60248201527f4e4f545f415554484f52495a45440000000000000000000000000000000000006044820152606401610716565b6001600160a01b0380841660008181526004602090815260408083208054600019019055938616808352848320805460010190558583526003825284832080547fffffffffffffffffffffffff00000000000000000000000000000000000000009081168317909155600590925284832080549092169091559251849392917fddf252ad1be2c89b69c2b068fc378daa952ba7f163c4a11628f55a4df523b3ef91a4505050565b611524838383610888565b6001600160a01b0382163b15806115fe57506040517f150b7a02000000000000000000000000000000000000000000000000000000008082523360048301526001600160a01b03858116602484015260448301849052608060648401526000608484015290919084169063150b7a029060a4016020604051808303816000875af11580156115b6573d6000803e3d6000fd5b505050506040513d601f19601f820116820180604052508101906115da9190612a16565b7fffffffff0000000000000000000000000000000000000000000000000000000016145b6107ab5760405162461bcd60e51b815260206004820152601060248201527f554e534146455f524543495049454e54000000000000000000000000000000006044820152606401610716565b606082828080601f0160208091040260200160405190810160405280939291908181526020018383808284376000920191909152509293506108d19250899150879050611b59565b60008060008060006116a388611d9c565b6040517fe6a1e8880000000000000000000000000000000000000000000000000000000081526001600160a01b038b811660048301528a811660248301528981166044830152919350908316915063e6a1e88890606401608060405180830381865afa158015611717573d6000803e3d6000fd5b505050506040513d601f19601f8201168201806040525081019061173b9190612a33565b929b919a509850909650945050505050565b60008061178d61175c84610a83565b6001600160a01b037f0000000000000000000000000000000000000000000000000000000000000000169030611939565b90506008600061179c85610a83565b6001600160a01b031681526020810191909152604001600020546117c09042612941565b6117d8906bffffffffffffffffffffffff8316612a71565b600860006117e586610a83565b6001600160a01b03166001600160a01b03168152602001908152602001600020600101546118139190612914565b9392505050565b611825858585610888565b6001600160a01b0384163b15806118ed57506040517f150b7a0200000000000000000000000000000000000000000000000000000000808252906001600160a01b0386169063150b7a02906118869033908a90899089908990600401612a88565b6020604051808303816000875af11580156118a5573d6000803e3d6000fd5b505050506040513d601f19601f820116820180604052508101906118c99190612a16565b7fffffffff0000000000000000000000000000000000000000000000000000000016145b610e125760405162461bcd60e51b815260206004820152601060248201527f554e534146455f524543495049454e54000000000000000000000000000000006044820152606401610716565b60008061194585611d9c565b6040517fe6a1e8880000000000000000000000000000000000000000000000000000000081526001600160a01b03888116600483015287811660248301528681166044830152919350908316915063e6a1e88890606401608060405180830381865afa1580156119b9573d6000803e3d6000fd5b505050506040513d601f19601f820116820180604052508101906119dd9190612a33565b5090979650505050505050565b606082828080601f016020809104026020016040519081016040528093929190818152602001838380828437600092019190915250929350611a319250869150610b069050565b15611a7e5760405162461bcd60e51b815260206004820152601960248201527f45564f3a207573657220616c726561647920686173204e4654000000000000006044820152606401610716565b6000611a946001600160a01b0387168630611939565b600754909150600b90810b9082900b1315611b175760405162461bcd60e51b815260206004820152603160248201527f45564f3a20757365722063616e27742073747265616d20696e206d6f7265207460448201527f68616e206d6178496e466c6f77526174650000000000000000000000000000006064820152608401610716565b6001600160a01b0385166000908152600860205260408120429055600b8054611b5092889291611b4690612927565b9182905550611f36565b50949350505050565b6001600160a01b0382166000908152600860205260408120549003611bc05760405162461bcd60e51b815260206004820152601460248201527f45564f3a207573657220686173206e6f204e46540000000000000000000000006044820152606401610716565b6001600160a01b038216600090815260086020526040812054611be39042612941565b6001600160a01b0384166000908152600860205260408120559050611c16816bffffffffffffffffffffffff8416612a71565b6001600160a01b039093166000908152600860205260409020600101929092555050565b6000806000611c4886612074565b91509150816001600160a01b03166339255d5b82836001600160a01b031663b4b333c68a8a8a600067ffffffffffffffff811115611c8857611c88612343565b6040519080825280601f01601f191660200182016040528015611cb2576020820181803683370190505b50604051602401611cc69493929190612adc565b60408051601f19818403018152918152602080830180517bffffffffffffffffffffffffffffffffffffffffffffffffffffffff1660e095861b179052815160008152908101918290529286901b7fffffffff00000000000000000000000000000000000000000000000000000000169052611d489392509060248101612b1a565b6000604051808303816000875af1158015611d67573d6000803e3d6000fd5b505050506040513d6000823e601f3d908101601f19168201604052611d8f9190810190612b4e565b5060019695505050505050565b7f65599bf746e17a00ea62e3610586992d88101b78eec3cf380706621fb97ea837547fb969d79d88acd02d04ed7ee7d43b949e7daf093d363abcfbbc43dfdfd1ce969a546001600160a01b038116611f05576001600160a01b038216611e6157826001600160a01b03166320bc44256040518163ffffffff1660e01b8152600401602060405180830381865afa158015611e3a573d6000803e3d6000fd5b505050506040513d601f19601f82011682018060405250810190611e5e91906129f9565b91505b6040517fb6d200de0000000000000000000000000000000000000000000000000000000081527fa9214cc96615e0085d3bb077758db69497dc2dce3b2b1e97bc93c3d18d83efd360048201526001600160a01b0383169063b6d200de90602401602060405180830381865afa158015611ede573d6000803e3d6000fd5b505050506040513d601f19601f82011682018060405250810190611f0291906129f9565b90505b6001600160a01b038216611f1b57611f1b612bc5565b6001600160a01b038116611f3157611f31612bc5565b915091565b6001600160a01b038216611f8c5760405162461bcd60e51b815260206004820152601160248201527f494e56414c49445f524543495049454e540000000000000000000000000000006044820152606401610716565b6000818152600360205260409020546001600160a01b031615611ff15760405162461bcd60e51b815260206004820152600e60248201527f414c52454144595f4d494e5445440000000000000000000000000000000000006044820152606401610716565b6001600160a01b038216600081815260046020908152604080832080546001019055848352600390915280822080547fffffffffffffffffffffffff0000000000000000000000000000000000000000168417905551839291907fddf252ad1be2c89b69c2b068fc378daa952ba7f163c4a11628f55a4df523b3ef908290a45050565b7f65599bf746e17a00ea62e3610586992d88101b78eec3cf380706621fb97ea837547fb969d79d88acd02d04ed7ee7d43b949e7daf093d363abcfbbc43dfdfd1ce969a546001600160a01b038116611f05576001600160a01b03821661213957826001600160a01b03166320bc44256040518163ffffffff1660e01b8152600401602060405180830381865afa158015612112573d6000803e3d6000fd5b505050506040513d601f19601f8201168201806040525081019061213691906129f9565b91505b6040517fb6d200de0000000000000000000000000000000000000000000000000000000081527fa9214cc96615e0085d3bb077758db69497dc2dce3b2b1e97bc93c3d18d83efd360048201526001600160a01b0383169063b6d200de90602401602060405180830381865afa1580156121b6573d6000803e3d6000fd5b505050506040513d601f19601f820116820180604052508101906121da91906129f9565b9050817f65599bf746e17a00ea62e3610586992d88101b78eec3cf380706621fb97ea83755807fb969d79d88acd02d04ed7ee7d43b949e7daf093d363abcfbbc43dfdfd1ce969a556001600160a01b038216611f1b57611f1b612bc5565b7fffffffff000000000000000000000000000000000000000000000000000000008116811461226657600080fd5b50565b60006020828403121561227b57600080fd5b813561181381612238565b60006020828403121561229857600080fd5b5035919050565b60005b838110156122ba5781810151838201526020016122a2565b50506000910152565b600081518084526122db81602086016020860161229f565b601f01601f19169290920160200192915050565b60208152600061181360208301846122c3565b6001600160a01b038116811461226657600080fd5b6000806040838503121561232a57600080fd5b823561233581612302565b946020939093013593505050565b634e487b7160e01b600052604160045260246000fd5b604051601f8201601f1916810167ffffffffffffffff8111828210171561238257612382612343565b604052919050565b600067ffffffffffffffff8211156123a4576123a4612343565b50601f01601f191660200190565b600080604083850312156123c557600080fd5b82359150602083013567ffffffffffffffff8111156123e357600080fd5b8301601f810185136123f457600080fd5b80356124076124028261238a565b612359565b81815286602083850101111561241c57600080fd5b816020840160208301376000602083830101528093505050509250929050565b60006020828403121561244e57600080fd5b813561181381612302565b60008083601f84011261246b57600080fd5b50813567ffffffffffffffff81111561248357600080fd5b60208301915083602082850101111561249b57600080fd5b9250929050565b600080600080600080600080600060c08a8c0312156124c057600080fd5b89356124cb81612302565b985060208a01356124db81612302565b975060408a0135965060608a013567ffffffffffffffff808211156124ff57600080fd5b61250b8d838e01612459565b909850965060808c013591508082111561252457600080fd5b6125308d838e01612459565b909650945060a08c013591508082111561254957600080fd5b506125568c828d01612459565b915080935050809150509295985092959850929598565b60008060006060848603121561258257600080fd5b833561258d81612302565b9250602084013561259d81612302565b929592945050506040919091013590565b600080600080600080600060a0888a0312156125c957600080fd5b87356125d481612302565b965060208801356125e481612302565b955060408801359450606088013567ffffffffffffffff8082111561260857600080fd5b6126148b838c01612459565b909650945060808a013591508082111561262d57600080fd5b5061263a8a828b01612459565b989b979a50959850939692959293505050565b6000806040838503121561266057600080fd5b823561266b81612302565b91506020830135801515811461268057600080fd5b809150509250929050565b6000806040838503121561269e57600080fd5b50508035926020909101359150565b6000806000806000608086880312156126c557600080fd5b85356126d081612302565b945060208601356126e081612302565b935060408601359250606086013567ffffffffffffffff81111561270357600080fd5b61270f88828901612459565b969995985093965092949392505050565b6000806040838503121561273357600080fd5b823561273e81612302565b9150602083013561268081612302565b600181811c9082168061276257607f821691505b60208210810361278257634e487b7160e01b600052602260045260246000fd5b50919050565b601f8211156107ab57600081815260208120601f850160051c810160208610156127af5750805b601f850160051c820191505b818110156127ce578281556001016127bb565b505050505050565b815167ffffffffffffffff8111156127f0576127f0612343565b612804816127fe845461274e565b84612788565b602080601f83116001811461283957600084156128215750858301515b600019600386901b1c1916600185901b1785556127ce565b600085815260208120601f198616915b8281101561286857888601518255948401946001909101908401612849565b50858210156128865787850151600019600388901b60f8161c191681555b5050505050600190811b01905550565b80600b0b811461226657600080fd5b600080604083850312156128b857600080fd5b823561233581612896565b600080604083850312156128d657600080fd5b82359150602083013561268081612896565b634e487b7160e01b600052603260045260246000fd5b634e487b7160e01b600052601160045260246000fd5b808201808211156105d0576105d06128fe565b6000600019820361293a5761293a6128fe565b5060010190565b818103818111156105d0576105d06128fe565b7f68747470733a2f2f697066732e696f2f697066732f0000000000000000000000815260006015600084546129888161274e565b600182811680156129a057600181146129b9576129ec565b60ff1984168689015285831515840289010194506129ec565b8860005260208060002060005b858110156129e15781548b82018a01529084019082016129c6565b505050858389010194505b5092979650505050505050565b600060208284031215612a0b57600080fd5b815161181381612302565b600060208284031215612a2857600080fd5b815161181381612238565b60008060008060808587031215612a4957600080fd5b845193506020850151612a5b81612896565b6040860151606090960151949790965092505050565b80820281158282048414176105d0576105d06128fe565b60006001600160a01b03808816835280871660208401525084604083015260806060830152826080830152828460a0840137600060a0848401015260a0601f19601f85011683010190509695505050505050565b60006001600160a01b038087168352808616602084015280851660408401525060806060830152612b1060808301846122c3565b9695505050505050565b6001600160a01b0384168152606060208201526000612b3c60608301856122c3565b8281036040840152612b1081856122c3565b600060208284031215612b6057600080fd5b815167ffffffffffffffff811115612b7757600080fd5b8201601f81018413612b8857600080fd5b8051612b966124028261238a565b818152856020838501011115612bab57600080fd5b612bbc82602083016020860161229f565b95945050505050565b634e487b7160e01b600052600160045260246000fdfea2646970667358221220b5d70761b960180d2b4daf76402983be87648bb59d62d0aea1fe7bea679e14bf64736f6c63430008130033",
    "linkReferences": {}
  },
  "methodIdentifiers": {
    "CFAV1_TYPE()": "bcb4546f",
    "afterAgreementCreated(address,address,bytes32,bytes,bytes,bytes)": "d86ed3e5",
    "afterAgreementTerminated(address,address,bytes32,bytes,bytes,bytes)": "53c11f99",
    "afterAgreementUpdated(address,address,bytes32,bytes,bytes,bytes)": "230dbd29",
    "approve(address,uint256)": "095ea7b3",
    "balanceOf(address)": "70a08231",
    "beforeAgreementCreated(address,address,bytes32,bytes,bytes)": "30d9c915",
    "beforeAgreementTerminated(address,address,bytes32,bytes,bytes)": "5f9e7d77",
    "beforeAgreementUpdated(address,address,bytes32,bytes,bytes)": "884d1f40",
    "counter()": "61bc221a",
    "getApproved(uint256)": "081812fc",
    "getTierLevel(uint256)": "b7713b7c",
    "host()": "f437bc59",
    "inResourceToken()": "2d5684a7",
    "isAcceptedSuperToken(address)": "72ca8a3e",
    "isApprovedForAll(address,address)": "e985e9c5",
    "maxInFlowRate()": "0fc82459",
    "name()": "06fdde03",
    "ownerOf(uint256)": "6352211e",
    "safeTransferFrom(address,address,uint256)": "42842e0e",
    "safeTransferFrom(address,address,uint256,bytes)": "b88d4fde",
    "setApprovalForAll(address,bool)": "a22cb465",
    "setTier(uint256,uint256)": "a34e5990",
    "setTokenURI(uint256,string)": "162094c4",
    "supportsInterface(bytes4)": "01ffc9a7",
    "symbol()": "95d89b41",
    "tiers(uint256)": "039af9eb",
    "tokenURI(uint256)": "c87b56dd",
    "tokenURIs(uint256)": "6c8b703f",
    "transferFrom(address,address,uint256)": "23b872dd",
    "userInfo(address)": "1959a002"
  },
  "id": 279
}