{
  "abi": [
    {
      "inputs": [
        {
          "internalType": "contract ISuperToken",
          "name": "_inResourceToken",
          "type": "address"
        },
        {
          "internalType": "contract ISuperToken",
          "name": "_outResourceToken",
          "type": "address"
        },
        {
          "internalType": "int8",
          "name": "_rateConversion",
          "type": "int8"
        },
        {
          "internalType": "int96",
          "name": "_maxInFlowRate",
          "type": "int96"
        }
      ],
      "stateMutability": "nonpayable",
      "type": "constructor"
    },
    {
      "inputs": [],
      "name": "NotAcceptedSuperToken",
      "type": "error"
    },
    {
      "inputs": [],
      "name": "NotImplemented",
      "type": "error"
    },
    {
      "inputs": [],
      "name": "UnauthorizedHost",
      "type": "error"
    },
    {
      "inputs": [],
      "name": "CFAV1_TYPE",
      "outputs": [
        {
          "internalType": "bytes32",
          "name": "",
          "type": "bytes32"
        }
      ],
      "stateMutability": "view",
      "type": "function"
    },
    {
      "inputs": [
        {
          "internalType": "contract ISuperToken",
          "name": "superToken",
          "type": "address"
        },
        {
          "internalType": "address",
          "name": "agreementClass",
          "type": "address"
        },
        {
          "internalType": "bytes32",
          "name": "",
          "type": "bytes32"
        },
        {
          "internalType": "bytes",
          "name": "agreementData",
          "type": "bytes"
        },
        {
          "internalType": "bytes",
          "name": "",
          "type": "bytes"
        },
        {
          "internalType": "bytes",
          "name": "ctx",
          "type": "bytes"
        }
      ],
      "name": "afterAgreementCreated",
      "outputs": [
        {
          "internalType": "bytes",
          "name": "newCtx",
          "type": "bytes"
        }
      ],
      "stateMutability": "nonpayable",
      "type": "function"
    },
    {
      "inputs": [
        {
          "internalType": "contract ISuperToken",
          "name": "superToken",
          "type": "address"
        },
        {
          "internalType": "address",
          "name": "agreementClass",
          "type": "address"
        },
        {
          "internalType": "bytes32",
          "name": "",
          "type": "bytes32"
        },
        {
          "internalType": "bytes",
          "name": "agreementData",
          "type": "bytes"
        },
        {
          "internalType": "bytes",
          "name": "cbdata",
          "type": "bytes"
        },
        {
          "internalType": "bytes",
          "name": "ctx",
          "type": "bytes"
        }
      ],
      "name": "afterAgreementTerminated",
      "outputs": [
        {
          "internalType": "bytes",
          "name": "newCtx",
          "type": "bytes"
        }
      ],
      "stateMutability": "nonpayable",
      "type": "function"
    },
    {
      "inputs": [
        {
          "internalType": "contract ISuperToken",
          "name": "superToken",
          "type": "address"
        },
        {
          "internalType": "address",
          "name": "agreementClass",
          "type": "address"
        },
        {
          "internalType": "bytes32",
          "name": "",
          "type": "bytes32"
        },
        {
          "internalType": "bytes",
          "name": "agreementData",
          "type": "bytes"
        },
        {
          "internalType": "bytes",
          "name": "cbdata",
          "type": "bytes"
        },
        {
          "internalType": "bytes",
          "name": "ctx",
          "type": "bytes"
        }
      ],
      "name": "afterAgreementUpdated",
      "outputs": [
        {
          "internalType": "bytes",
          "name": "newCtx",
          "type": "bytes"
        }
      ],
      "stateMutability": "nonpayable",
      "type": "function"
    },
    {
      "inputs": [
        {
          "internalType": "contract ISuperToken",
          "name": "",
          "type": "address"
        },
        {
          "internalType": "address",
          "name": "",
          "type": "address"
        },
        {
          "internalType": "bytes32",
          "name": "",
          "type": "bytes32"
        },
        {
          "internalType": "bytes",
          "name": "",
          "type": "bytes"
        },
        {
          "internalType": "bytes",
          "name": "",
          "type": "bytes"
        }
      ],
      "name": "beforeAgreementCreated",
      "outputs": [
        {
          "internalType": "bytes",
          "name": "",
          "type": "bytes"
        }
      ],
      "stateMutability": "pure",
      "type": "function"
    },
    {
      "inputs": [
        {
          "internalType": "contract ISuperToken",
          "name": "superToken",
          "type": "address"
        },
        {
          "internalType": "address",
          "name": "agreementClass",
          "type": "address"
        },
        {
          "internalType": "bytes32",
          "name": "",
          "type": "bytes32"
        },
        {
          "internalType": "bytes",
          "name": "agreementData",
          "type": "bytes"
        },
        {
          "internalType": "bytes",
          "name": "",
          "type": "bytes"
        }
      ],
      "name": "beforeAgreementTerminated",
      "outputs": [
        {
          "internalType": "bytes",
          "name": "",
          "type": "bytes"
        }
      ],
      "stateMutability": "view",
      "type": "function"
    },
    {
      "inputs": [
        {
          "internalType": "contract ISuperToken",
          "name": "superToken",
          "type": "address"
        },
        {
          "internalType": "address",
          "name": "agreementClass",
          "type": "address"
        },
        {
          "internalType": "bytes32",
          "name": "",
          "type": "bytes32"
        },
        {
          "internalType": "bytes",
          "name": "agreementData",
          "type": "bytes"
        },
        {
          "internalType": "bytes",
          "name": "",
          "type": "bytes"
        }
      ],
      "name": "beforeAgreementUpdated",
      "outputs": [
        {
          "internalType": "bytes",
          "name": "",
          "type": "bytes"
        }
      ],
      "stateMutability": "view",
      "type": "function"
    },
    {
      "inputs": [],
      "name": "host",
      "outputs": [
        {
          "internalType": "contract ISuperfluid",
          "name": "",
          "type": "address"
        }
      ],
      "stateMutability": "view",
      "type": "function"
    },
    {
      "inputs": [],
      "name": "inResourceToken",
      "outputs": [
        {
          "internalType": "contract ISuperToken",
          "name": "",
          "type": "address"
        }
      ],
      "stateMutability": "view",
      "type": "function"
    },
    {
      "inputs": [
        {
          "internalType": "contract ISuperToken",
          "name": "_superToken",
          "type": "address"
        }
      ],
      "name": "isAcceptedSuperToken",
      "outputs": [
        {
          "internalType": "bool",
          "name": "",
          "type": "bool"
        }
      ],
      "stateMutability": "view",
      "type": "function"
    },
    {
      "inputs": [],
      "name": "maxInFlowRate",
      "outputs": [
        {
          "internalType": "int96",
          "name": "",
          "type": "int96"
        }
      ],
      "stateMutability": "view",
      "type": "function"
    },
    {
      "inputs": [],
      "name": "outResourceToken",
      "outputs": [
        {
          "internalType": "contract ISuperToken",
          "name": "",
          "type": "address"
        }
      ],
      "stateMutability": "view",
      "type": "function"
    },
    {
      "inputs": [],
      "name": "rateConversion",
      "outputs": [
        {
          "internalType": "int8",
          "name": "",
          "type": "int8"
        }
      ],
      "stateMutability": "view",
      "type": "function"
    },
    {
      "inputs": [
        {
          "internalType": "contract ISuperToken",
          "name": "superToken",
          "type": "address"
        },
        {
          "internalType": "address",
          "name": "_to",
          "type": "address"
        },
        {
          "internalType": "uint256",
          "name": "_amount",
          "type": "uint256"
        }
      ],
      "name": "transfer",
      "outputs": [],
      "stateMutability": "nonpayable",
      "type": "function"
    }
  ],
  "bytecode": {
    "object": "0x60c06040523480156200001157600080fd5b5060405162001f1338038062001f1383398101604081905262000034916200036c565b836001600160a01b03166320bc44256040518163ffffffff1660e01b8152600401602060405180830381865afa15801562000073573d6000803e3d6000fd5b505050506040513d601f19601f82011682018060405250810190620000999190620003e0565b600080546001600160a01b0319166001600160a01b0383161790556001808064010000000182620000cc57640c00000000175b81620000da57643000000000175b6040516315a722b960e31b8152600481018290526001600160a01b0386169063ad3915c890602401600060405180830381600087803b1580156200011d57600080fd5b505af115801562000132573d6000803e3d6000fd5b5050506001600160a01b038a169550620001a99450505050505760405162461bcd60e51b815260206004820152602760248201527f53746f72653a20696e5265736f75726365546f6b656e206d757374206265206e6044820152666f6e2d7a65726f60c81b60648201526084015b60405180910390fd5b6001600160a01b038316620002125760405162461bcd60e51b815260206004820152602860248201527f53746f72653a206f75745265736f75726365546f6b656e206d757374206265206044820152676e6f6e2d7a65726f60c01b6064820152608401620001a0565b6063198260000b121580156200022c575060648260000b13155b620002955760405162461bcd60e51b815260206004820152603260248201527f53746f72653a2072617465436f6e76657273696f6e206d7573742062652062656044820152710747765656e202d31303020616e64203130360741b6064820152608401620001a0565b600081600b0b1215620002f95760405162461bcd60e51b815260206004820152602560248201527f53746f72653a206d6178496e466c6f7752617465206d757374206265206e6f6e6044820152642d7a65726f60d81b6064820152608401620001a0565b6001600160a01b039384166080529190921660a0526000805460ff60a01b1916600160a01b60ff9094169390930292909217909155600180546001600160601b0319166001600160601b0390921691909117905562000407565b6001600160a01b03811681146200036957600080fd5b50565b600080600080608085870312156200038357600080fd5b8451620003908162000353565b6020860151909450620003a38162000353565b8093505060408501518060000b8114620003bc57600080fd5b80925050606085015180600b0b8114620003d557600080fd5b939692955090935050565b600060208284031215620003f357600080fd5b8151620004008162000353565b9392505050565b60805160a051611a9262000481600039600081816101c401528181610a7701528181610b3201528181610b730152610d7b0152600081816101720152818161021c015281816103740152818161046d015281816105540152818161068d0152818161087801528181610ab10152610af20152611a926000f3fe608060405234801561001057600080fd5b50600436106100ea5760003560e01c80635f9e7d771161008c578063bcb4546f11610066578063bcb4546f1461026f578063beabacc8146102a4578063d86ed3e5146102b9578063f437bc59146102cc57600080fd5b80635f9e7d77146101f957806372ca8a3e1461020c578063884d1f401461025c57600080fd5b80632d5684a7116100c85780632d5684a71461016d57806330d9c915146101ac57806344a98264146101bf57806353c11f99146101e657600080fd5b80630fc82459146100ef578063230dbd291461011457806325c9f09c14610134575b600080fd5b6001546100fc90600b0b81565b604051600b9190910b81526020015b60405180910390f35b610127610122366004611439565b6102df565b60405161010b9190611554565b6000805461015a9174010000000000000000000000000000000000000000909104900b81565b60405160009190910b815260200161010b565b6101947f000000000000000000000000000000000000000000000000000000000000000081565b6040516001600160a01b03909116815260200161010b565b6101276101ba36600461156e565b61041d565b6101947f000000000000000000000000000000000000000000000000000000000000000081565b6101276101f4366004611439565b610442565b61012761020736600461156e565b610529565b61024c61021a36600461160d565b7f00000000000000000000000000000000000000000000000000000000000000006001600160a01b0390811691161490565b604051901515815260200161010b565b61012761026a36600461156e565b610618565b6102967fa9214cc96615e0085d3bb077758db69497dc2dce3b2b1e97bc93c3d18d83efd381565b60405190815260200161010b565b6102b76102b236600461162a565b610751565b005b6101276102c7366004611439565b6107e3565b600054610194906001600160a01b031681565b6000546060906001600160a01b03163314610326576040517f2f2d36a700000000000000000000000000000000000000000000000000000000815260040160405180910390fd5b61032f89610908565b6103725782828080601f01602080910402602001604051908101604052809392919081815260200183838082843760009201919091525092935061041092505050565b7f00000000000000000000000000000000000000000000000000000000000000006001600160a01b03908116908b16146103d8576040517ff512dd5800000000000000000000000000000000000000000000000000000000815260040160405180910390fd5b60006103e68789018961166b565b5090506000806103f8878901896116b3565b9150915061040a8d8484848a8a6109c9565b93505050505b9998505050505050505050565b604080518082019091526002815261060f60f31b60208201525b979650505050505050565b6000546060906001600160a01b031633141580610465575061046389610908565b155b8061049d57507f00000000000000000000000000000000000000000000000000000000000000006001600160a01b03908116908b1614155b156104e15782828080601f01602080910402602001604051908101604052809392919081815260200183838082843760009201919091525092935061041092505050565b6000806104f0888a018a61166b565b9092509050600080610504888a018a6116df565b915091506105178e858584868c8c610a33565b9e9d5050505050505050505050505050565b6000546060906001600160a01b03163314158061054c575061054a87610908565b155b8061058457507f00000000000000000000000000000000000000000000000000000000000000006001600160a01b0390811690891614155b156105a85750604080518082019091526002815261060f60f31b6020820152610437565b6000806105b78688018861166b565b90925090506000806105d36001600160a01b038d168585610baa565b50509150915081816040516020016105f8929190918252600b0b602082015260400190565b604051602081830303815290604052945050505050979650505050505050565b6000546060906001600160a01b0316331461065f576040517f2f2d36a700000000000000000000000000000000000000000000000000000000815260040160405180910390fd5b61066887610908565b61068b5750604080518082019091526002815261060f60f31b6020820152610437565b7f00000000000000000000000000000000000000000000000000000000000000006001600160a01b03908116908916146106f1576040517ff512dd5800000000000000000000000000000000000000000000000000000000815260040160405180910390fd5b60006106ff8587018761166b565b5090506000806107196001600160a01b038c168430610baa565b505060408051600b9290920b60208301528181019290925281518082038301815260609091019091529b9a5050505050505050505050565b6040517fa9059cbb0000000000000000000000000000000000000000000000000000000081526001600160a01b0383811660048301526024820183905284169063a9059cbb906044016020604051808303816000875af11580156107b9573d6000803e3d6000fd5b505050506040513d601f19601f820116820180604052508101906107dd9190611704565b50505050565b6000546060906001600160a01b0316331461082a576040517f2f2d36a700000000000000000000000000000000000000000000000000000000815260040160405180910390fd5b61083389610908565b6108765782828080601f01602080910402602001604051908101604052809392919081815260200183838082843760009201919091525092935061041092505050565b7f00000000000000000000000000000000000000000000000000000000000000006001600160a01b03908116908b16146108dc576040517ff512dd5800000000000000000000000000000000000000000000000000000000815260040160405180910390fd5b60006108ea8789018961166b565b5090506108f98b828686610c65565b9b9a5050505050505050505050565b600080546040517fb6d200de0000000000000000000000000000000000000000000000000000000081527fa9214cc96615e0085d3bb077758db69497dc2dce3b2b1e97bc93c3d18d83efd360048201526001600160a01b039091169063b6d200de90602401602060405180830381865afa15801561098a573d6000803e3d6000fd5b505050506040513d601f19601f820116820180604052508101906109ae9190611726565b6001600160a01b0316826001600160a01b0316149050919050565b6040517f08c379a000000000000000000000000000000000000000000000000000000000815260206004820152601660248201527f63616e27742075706461746520736f727279206279650000000000000000000060448201526060906064015b60405180910390fd5b606082828080601f01602080910402602001604051908101604052809392919081815260200183838082843760009201919091525092935050506001600160a01b037f00000000000000000000000000000000000000000000000000000000000000008116908a16039050610b23576000610ad86001600160a01b037f0000000000000000000000000000000000000000000000000000000000000000168830610da6565b905080600b0b600014610b1d57610b1a6001600160a01b037f000000000000000000000000000000000000000000000000000000000000000016883085610e57565b91505b50610437565b6000610b596001600160a01b037f0000000000000000000000000000000000000000000000000000000000000000163089610da6565b905080600b0b600014610b9e57610b9b6001600160a01b037f000000000000000000000000000000000000000000000000000000000000000016308985610e57565b91505b50979650505050505050565b6000806000806000610bbb88610fa2565b6040517fe6a1e8880000000000000000000000000000000000000000000000000000000081526001600160a01b038b811660048301528a811660248301528981166044830152919350908316915063e6a1e88890606401608060405180830381865afa158015610c2f573d6000803e3d6000fd5b505050506040513d601f19601f82011682018060405250810190610c539190611743565b929b919a509850909650945050505050565b606082828080601f0160208091040260200160405190810160405280939291908181526020018383808284376000920182905250939450610cb4925050506001600160a01b0387168630610da6565b600154909150600b90810b9082900b1315610d2b576040517f08c379a000000000000000000000000000000000000000000000000000000000815260206004820152601a60248201527f53746f72653a20696e466c6f775261746520746f6f20686967680000000000006044820152606401610a2a565b6000610d368261113c565b9050610437868287878080601f016020809104026020016040519081016040528093929190818152602001838380828437600092019190915250506001600160a01b037f000000000000000000000000000000000000000000000000000000000000000016949392915050611188565b600080610db285610fa2565b6040517fe6a1e8880000000000000000000000000000000000000000000000000000000081526001600160a01b03888116600483015287811660248301528681166044830152919350908316915063e6a1e88890606401608060405180830381865afa158015610e26573d6000803e3d6000fd5b505050506040513d601f19601f82011682018060405250810190610e4a9190611743565b5090979650505050505050565b6060600080610e6587611214565b91509150816001600160a01b0316634329d29382836001600160a01b031663b4b333c68b8b8b600067ffffffffffffffff811115610ea557610ea5611781565b6040519080825280601f01601f191660200182016040528015610ecf576020820181803683370190505b50604051602401610ee39493929190611797565b60408051808303601f1901815291815260208201805160e094851b7bffffffffffffffffffffffffffffffffffffffffffffffffffffffff909116179052519185901b7fffffffff00000000000000000000000000000000000000000000000000000000168252610f5b9392509089906004016117d5565b6000604051808303816000875af1158015610f7a573d6000803e3d6000fd5b505050506040513d6000823e601f3d908101601f19168201604052610b9e91908101906118a4565b7f65599bf746e17a00ea62e3610586992d88101b78eec3cf380706621fb97ea837547fb969d79d88acd02d04ed7ee7d43b949e7daf093d363abcfbbc43dfdfd1ce969a546001600160a01b03811661110b576001600160a01b03821661106757826001600160a01b03166320bc44256040518163ffffffff1660e01b8152600401602060405180830381865afa158015611040573d6000803e3d6000fd5b505050506040513d601f19601f820116820180604052508101906110649190611726565b91505b6040517fb6d200de0000000000000000000000000000000000000000000000000000000081527fa9214cc96615e0085d3bb077758db69497dc2dce3b2b1e97bc93c3d18d83efd360048201526001600160a01b0383169063b6d200de90602401602060405180830381865afa1580156110e4573d6000803e3d6000fd5b505050506040513d601f19601f820116820180604052508101906111089190611726565b90505b6001600160a01b03821661112157611121611908565b6001600160a01b03811661113757611137611908565b915091565b60008054670de0b6b3a76400009061116e90740100000000000000000000000000000000000000009004830b84611934565b611178919061195b565b61118290836119dd565b92915050565b606060008061119687611214565b91509150816001600160a01b0316634329d29382836001600160a01b03166362fc305e8b8b8b600067ffffffffffffffff8111156111d6576111d6611781565b6040519080825280601f01601f191660200182016040528015611200576020820181803683370190505b50604051602401610ee39493929190611a27565b7f65599bf746e17a00ea62e3610586992d88101b78eec3cf380706621fb97ea837547fb969d79d88acd02d04ed7ee7d43b949e7daf093d363abcfbbc43dfdfd1ce969a546001600160a01b03811661110b576001600160a01b0382166112d957826001600160a01b03166320bc44256040518163ffffffff1660e01b8152600401602060405180830381865afa1580156112b2573d6000803e3d6000fd5b505050506040513d601f19601f820116820180604052508101906112d69190611726565b91505b6040517fb6d200de0000000000000000000000000000000000000000000000000000000081527fa9214cc96615e0085d3bb077758db69497dc2dce3b2b1e97bc93c3d18d83efd360048201526001600160a01b0383169063b6d200de90602401602060405180830381865afa158015611356573d6000803e3d6000fd5b505050506040513d601f19601f8201168201806040525081019061137a9190611726565b9050817f65599bf746e17a00ea62e3610586992d88101b78eec3cf380706621fb97ea83755807fb969d79d88acd02d04ed7ee7d43b949e7daf093d363abcfbbc43dfdfd1ce969a556001600160a01b03821661112157611121611908565b6001600160a01b03811681146113ed57600080fd5b50565b60008083601f84011261140257600080fd5b50813567ffffffffffffffff81111561141a57600080fd5b60208301915083602082850101111561143257600080fd5b9250929050565b600080600080600080600080600060c08a8c03121561145757600080fd5b8935611462816113d8565b985060208a0135611472816113d8565b975060408a0135965060608a013567ffffffffffffffff8082111561149657600080fd5b6114a28d838e016113f0565b909850965060808c01359150808211156114bb57600080fd5b6114c78d838e016113f0565b909650945060a08c01359150808211156114e057600080fd5b506114ed8c828d016113f0565b915080935050809150509295985092959850929598565b60005b8381101561151f578181015183820152602001611507565b50506000910152565b60008151808452611540816020860160208601611504565b601f01601f19169290920160200192915050565b6020815260006115676020830184611528565b9392505050565b600080600080600080600060a0888a03121561158957600080fd5b8735611594816113d8565b965060208801356115a4816113d8565b955060408801359450606088013567ffffffffffffffff808211156115c857600080fd5b6115d48b838c016113f0565b909650945060808a01359150808211156115ed57600080fd5b506115fa8a828b016113f0565b989b979a50959850939692959293505050565b60006020828403121561161f57600080fd5b8135611567816113d8565b60008060006060848603121561163f57600080fd5b833561164a816113d8565b9250602084013561165a816113d8565b929592945050506040919091013590565b6000806040838503121561167e57600080fd5b8235611689816113d8565b91506020830135611699816113d8565b809150509250929050565b80600b0b81146113ed57600080fd5b600080604083850312156116c657600080fd5b82356116d1816116a4565b946020939093013593505050565b600080604083850312156116f257600080fd5b823591506020830135611699816116a4565b60006020828403121561171657600080fd5b8151801515811461156757600080fd5b60006020828403121561173857600080fd5b8151611567816113d8565b6000806000806080858703121561175957600080fd5b84519350602085015161176b816116a4565b6040860151606090960151949790965092505050565b634e487b7160e01b600052604160045260246000fd5b60006001600160a01b0380871683528086166020840152808516604084015250608060608301526117cb6080830184611528565b9695505050505050565b6001600160a01b03841681526080602082015260006117f76080830185611528565b8281038060408501526002825261060f60f31b6020830152604081016060850152506117cb6040820185611528565b600082601f83011261183757600080fd5b815167ffffffffffffffff8082111561185257611852611781565b604051601f8301601f19908116603f0116810190828211818310171561187a5761187a611781565b8160405283815286602085880101111561189357600080fd5b6117cb846020830160208901611504565b600080604083850312156118b757600080fd5b825167ffffffffffffffff808211156118cf57600080fd5b6118db86838701611826565b935060208501519150808211156118f157600080fd5b506118fe85828601611826565b9150509250929050565b634e487b7160e01b600052600160045260246000fd5b634e487b7160e01b600052601160045260246000fd5b600082600b0b82600b0b0280600b0b91508082146119545761195461191e565b5092915050565b600081600b0b83600b0b8061198057634e487b7160e01b600052601260045260246000fd5b7fffffffffffffffffffffffffffffffffffffffffffffffffffffffffffffffff81147fffffffffffffffffffffffffffffffffffffffff800000000000000000000000831416156119d4576119d461191e565b90059392505050565b600b81810b9083900b016b7fffffffffffffffffffffff81137fffffffffffffffffffffffffffffffffffffffff800000000000000000000000821217156111825761118261191e565b60006001600160a01b03808716835280861660208401525083600b0b6040830152608060608301526117cb608083018461152856fea2646970667358221220eca6e1a227b92d535b5ebd8ab64ffb1aaf076caaf720e3c2ceb5456c11988ee664736f6c63430008130033",
    "linkReferences": {}
  },
  "methodIdentifiers": {
    "CFAV1_TYPE()": "bcb4546f",
    "afterAgreementCreated(address,address,bytes32,bytes,bytes,bytes)": "d86ed3e5",
    "afterAgreementTerminated(address,address,bytes32,bytes,bytes,bytes)": "53c11f99",
    "afterAgreementUpdated(address,address,bytes32,bytes,bytes,bytes)": "230dbd29",
    "beforeAgreementCreated(address,address,bytes32,bytes,bytes)": "30d9c915",
    "beforeAgreementTerminated(address,address,bytes32,bytes,bytes)": "5f9e7d77",
    "beforeAgreementUpdated(address,address,bytes32,bytes,bytes)": "884d1f40",
    "host()": "f437bc59",
    "inResourceToken()": "2d5684a7",
    "isAcceptedSuperToken(address)": "72ca8a3e",
    "maxInFlowRate()": "0fc82459",
    "outResourceToken()": "44a98264",
    "rateConversion()": "25c9f09c",
    "transfer(address,address,uint256)": "beabacc8"
  },
  "id": 282
}